:020000040800F2
:10000000500600204901000811030008D50200082D
:100010000D030008B50100085B0B0008000000009C
:10002000000000000000000000000000790500084A
:10003000B901000800000000850300088D060008D3
:100040006301000863010008630100086301000800
:1000500063010008630100086301000863010008F0
:1000600063010008630100086301000863010008E0
:1000700063010008630100086301000863010008D0
:1000800063010008630100086301000863010008C0
:1000900063010008630100086301000863010008B0
:1000A00063010008630100086301000863010008A0
:1000B000630100082D0700084D07000863010008D0
:1000C0006301000863010008630100086301000880
:1000D0006301000879080008B508000863010008FA
:1000E0006301000863010008630100086301000860
:1000F0006301000863010008630100086301000850
:10010000630100086301000863010008630100083F
:10011000630100086301000863010008630100082F
:10012000630100086301000863010008630100081F
:10013000DFF810D000F02CF80048004759170008ED
:10014000AFF300805006002006488047064800476D
:10015000FEE7FEE7FEE7FEE7FEE7FEE7FEE7FEE777
:10016000FEE7FEE7CD0600083101000840EA010382
:100170009B0703D009E008C9121F08C0042AFAD25D
:1001800003E011F8013B00F8013B521EF9D2704721
:10019000064C074D06E0E06840F0010394E80700D4
:1001A00098471034AC42F6D3FFF7C6FF301F000863
:1001B000501F000800BFFEE770472DE9F0410246DE
:1001C00000250026002000230024002791F803C00A
:1001D0000CF00F0591F803C00CF0100CBCF1000FEF
:1001E00003D091F802C04CEA050591F800C0BCF1BB
:1001F000000F31D0146800202BE04FF0010C0CFAF6
:1002000000F3B1F800C00CEA03069E4220D183003F
:100210004FF00F0C0CFA03F7BC4305FA03FC4CEA51
:10022000040491F803C0BCF1280F06D14FF0010C73
:100230000CFA00FCC2F814C00AE091F803C0BCF14B
:10024000480F05D14FF0010C0CFA00FCC2F810C0A9
:10025000401C0828D1D31460B1F800C0BCF1FF0FD6
:1002600034DD546800202EE000F1080C4FF0010846
:1002700008FA0CF3B1F800C00CEA03069E4221D143
:1002800083004FF00F0C0CFA03F7BC4305FA03FC94
:100290004CEA040491F803C0BCF1280F05D100F129
:1002A000080C08FA0CF8C2F8148091F803C0BCF1ED
:1002B000480F07D100F1080C4FF0010808FA0CF8BC
:1002C000C2F81080401C0828CED35460BDE8F081ED
:1002D0000161704700BFFEE708B50121102000F062
:1002E00063F8FF20ADF8000010208DF80300032014
:1002F0008DF8020069460448FFF75FFFFF210248BE
:10030000FFF7E6FF08BD00000010014000BFFEE758
:100310007047000070B5002100230F22C47804B399
:10032000154C246804F4E064C4F5E064210AC1F1CA
:100330000403CA40447804FA03F18478144021434A
:1003400009010E4C0678A155047804F01F0501241C
:10035000AC4005786D11AD0005F1E025C5F8004110
:1003600009E0047804F01F050124AC40044D067830
:10037000761145F8264070BD0CED00E000E400E089
:1003800080E100E07047000029B1064AD2690243CB
:10039000044BDA6104E0034AD2698243014BDA611B
:1003A000704700000010024029B1064A92690243DA
:1003B000044B9A6104E0034A92698243014B9A61BB
:1003C000704700000010024030B5002100220024D8
:1003D00000232D4D6D6805F00C0121B1042905D0D5
:1003E000082923D105E0294D056022E0274D05604D
:1003F0001FE0254D6D6805F47012234D6D6805F4FE
:100400008034022505EB92421CB9214D554305600D
:100410000BE01D4D6D6805F400351DB11C4D5543B5
:10042000056002E0194D5543056002E0174D056077
:1004300000BF00BF144D6D6805F0F0010909154DAE
:100440006B5C0568DD4045600F4D6D6805F4E0614B
:10045000090A104D6B5C4568DD4085600A4D6D688A
:1004600005F46051C90A0B4D6B5C4568DD40C56001
:10047000054D6D6805F44041890B074D6B5CC568FF
:10048000B5FBF3F5056130BD0010024000127A00A3
:1004900000093D00000000201000002010B586B0CB
:1004A000044601214FF48270FFF77EFF01214804CA
:1004B000FFF76AFF0420ADF8140018208DF817002C
:1004C00003208DF8160005A92748FFF776FE0820BF
:1004D000ADF8140004208DF8170003208DF81600E5
:1004E00005A92148FFF769FE0820ADF81400102087
:1004F0008DF8170003208DF8160005A91B48FFF79B
:100500005CFE01940020ADF80800ADF80A00ADF8DB
:100510000C00ADF810000C20ADF80E0001A9144835
:1005200000F0A6FA0121124800F03AFA40211048E2
:1005300000F01EFA012240F225510D4800F073FA36
:1005400026208DF8000003208DF8010002208DF890
:10055000020001208DF803006846FFF7DBFE002053
:100560000449086006B010BD0008014000200140A9
:10057000004400408C012442704710B500F002F89E
:1005800010BD00000CB500200190009033480068B9
:1005900040F480303149086000BF3048006800F402
:1005A000003000900198401C0190009818B9019803
:1005B000B0F5A06FF1D12948006800F4003010B107
:1005C0000120009001E0002000900098012843D114
:1005D0002348006840F01000214908600846006880
:1005E00020F0030008600846006840F00200086040
:1005F0001A484068194948600846406848600846FB
:10060000406840F4806048600846406820F47C10F0
:1006100048600846406840F4E810486008460068B2
:1006200040F08070086000BF0C48006800F0007067
:100630000028F9D00948406820F0030007494860C5
:100640000846406840F00200486000BF0348406828
:1006500000F00C000828F9D10CBD00000010024089
:1006600000200240042808D14FF0E021096941F040
:1006700004014FF0E022116107E04FF0E021096929
:1006800021F004014FF0E022116170477047000033
:1006900010B504466FF00400FFF7E4FFE11704EB28
:1006A0005171C1F3C701074A11701046007800EB81
:1006B0004001C1EBC0104FF6FF7101EAC0000249D2
:1006C000088010BD200000202200002010B5134833
:1006D000006840F001001149086008464068104970
:1006E00008400E494860084600680E4908400B491A
:1006F00008600846006820F48020086008464068CA
:1007000020F4FE0048604FF41F008860FFF735FFBB
:100710004FF000600449086010BD00000010024066
:100720000000FFF8FFFFF6FE08ED00E010B5012124
:10073000054800F032F828B101F076F801210248AE
:1007400000F01CF810BD00000004004010B50121AD
:10075000084800F022F838B10748006808B90120BD
:1007600000E00020044908600121024800F006F87A
:1007700010BD00000008004084012242CA430282EA
:10078000704721B1028842F00102028004E0028831
:100790004FF6FE731A400280704730B502460020C3
:1007A00000230024158A05EA0103958905EA01045E
:1007B00013B10CB1012000E0002030BD1AB18389D3
:1007C0000B43838102E083898B438381704781845B
:1007D00070470000002202881D4B98420ED01D4B2E
:1007E00098420BD0B0F1804F08D01B4B984205D0F7
:1007F0001A4B984202D01A4B984204D14FF68F738D
:100800001A404B881A43174B984207D0164B984210
:1008100004D04FF6FF431A40CB881A4302808B88DE
:1008200083850B8803850A4B98420BD0094B98426D
:1008300008D00E4B984205D00D4B984202D00D4B7C
:10084000984201D10B7A038601238382704700000E
:10085000002C01400034014000040040000800402A
:10086000000C004000100040001400400040014017
:10087000004401400048014010B540F225510C48A9
:1008800000F0A7F870B10A4800F05EF9C4B2214642
:10089000074800F05EF900BF4021054800F08CF8E1
:1008A0000128F9D14021024800F062F810BD000093
:1008B0000038014008B540F225512C4800F089F875
:1008C000012806D100F0B8FF40F22551274800F07A
:1008D00058F84FF45871254800F07BF8012809D1E9
:1008E0002248001D008800904FF458711F4800F006
:1008F00048F800BF40F226611C4800F06AF8012861
:1009000006D100F0A1FF40F22661184800F039F846
:100910000221164800F050F848B11448001D008824
:1009200000904FF4B071114800F02BF800BF042183
:100930000E4800F041F848B10C48001D00880090B6
:100940004FF41871094800F01CF800BF1021074847
:1009500000F032F848B10548001D0088009040F2D0
:100960002441024800F00DF800BF08BD00440040DB
:1009700001F40072B2F5007F00D100BFCA430280CB
:10098000704710B50022002340F66A14A14200D13E
:1009900000BF0A1201249440A3B2DC43048010BDBE
:1009A00021B1828942F40052828104E082894DF6AD
:1009B000FF731A408281704702460020B1F5007F24
:1009C00000D100BF13880B400BB1012000E00020D4
:1009D000704770B50246002400230025002040F631
:1009E0006A16B14200D100BFC1F3421501F01F03E6
:1009F000012606FA03F3012D02D19689334006E061
:100A0000022D02D1168A334001E0968A33400C123F
:100A1000012606FA04F41688344013B10CB1012003
:100A200000E0002070BDF0B503460024002600253C
:100A3000002040F66A17B94200D100BF1846C1F342
:100A4000421401F01F06012707FA06F5012C01D117
:100A50000C3004E0022C01D1103000E014301AB147
:100A600007682F43076002E00768AF430760F0BDE7
:100A70002DE9F04786B005460E460024A24600BF89
:100A8000A1460027B08900B100BF2F462C8A4CF642
:100A9000FF700440F08804432C82AC894EF6F310BA
:100AA0000440B08831890843718908430443AC810C
:100AB000AC8A4FF6FF400440B0890443AC8201A8E1
:100AC000FFF782FC1F48874202D1DDF810A001E049
:100AD000DDF80CA0A88900F4004040B10AEBCA0080
:100AE00000EB0A1031684900B0FBF1F807E00AEBAF
:100AF000CA0000EB0A1031688900B0FBF1F86420ED
:100B0000B8FBF0F004012009642101FB1089A889D9
:100B100000F4004040B1322000EBC900B0FBF1F01E
:100B200000F00700044308E0322000EB09106421C4
:100B3000B0FBF1F000F00F0004432C8106B0BDE8DB
:100B4000F08700000038014001468888C0F30800A3
:100B50007047C1F308028280704700BFFEE70000C3
:100B60000EB507460E46144619491AA000F0E8FDD6
:100B70001749384600F0E4FD15491CA000F0E0FDDF
:100B80001349304600F0DCFD11491AA000F0D8FDF1
:100B900003AD0021681E054601700A21681E054646
:100BA00001700CE00A2094FBF0F100FB11403030A2
:100BB000C1B2681E054601700A2094FBF0F4002CB7
:100BC000F0DC0349284600F0BBFD00F026F80000E9
:100BD000EC0000202A2A2A20617373657274696F01
:100BE0006E206661696C65643A2000002C2066699D
:100BF0006C6520002C206C696E65200002E008C83E
:100C0000121F08C1002AFAD170477047002001E086
:100C100001C1121F002AFBD1704700BFFEE7000090
:100C20000146114A12884A434FF0E0235A610022DC
:100C30009A611A46126942F001021A6100BF4FF030
:100C4000E022106900F001021AB100F48032002A9B
:100C5000F5D04FF0E022126922F001024FF0E023BC
:100C60001A6100229A6170472200002010B500240A
:100C700006480078012806D1054800688047002012
:100C80000249087000E00624204610BD360000200E
:100C90003C0000202DE9F05F06460D464FF0000BAA
:100CA0002888052844D170784FEA002AB07840EAB5
:100CB0000A0AF078040230790443012C35DBB4F5DC
:100CC000FA6F32DA374600202880012007F8010B3E
:100CD0002888401C288004F0070040B12046E11716
:100CE00004EB5171C910491C01F0FF0805E02046D2
:100CF000E11704EB5171C1F3C70807F8018B28888D
:100D0000401C2880002322465146384600F0B8FB9C
:100D10008146B9F1000F04D0484600F073FD8346C8
:100D200008E028884044288004E04FF0030B01E0ED
:100D30004FF0030B5846BDE8F09F2DE9F05F0646E3
:100D40000D464FF0000B2888052843D170784FEAF4
:100D5000002AB07840EA0A0AF078040230790443A5
:100D6000012C34DBB4F5FA6F31DA374600202880E5
:100D7000022007F8010B2888401C288004F0070097
:100D800040B12046E11704EB5171C910491C01F034
:100D9000FF0805E02046E11704EB5171C1F3C708D5
:100DA00007F8018B2888401C288022465146384687
:100DB00000F0FCFB8146B9F1000F04D0484600F07A
:100DC00021FD834608E028884044288004E04FF055
:100DD000030B01E04FF0030B5846BDE8F09F2DE9EF
:100DE000F04705460C464FF0000A2088052833D10D
:100DF00068784FEA0029A87840EA0909E8780602ED
:100E00002E79012E25DB7D2E23DC2F46002020802D
:100E1000032007F8010B2088401C20807006000E7C
:100E200007F8010B2088401C2080002332464946E9
:100E3000384600F0EBFB8046B8F1000F04D0404686
:100E400000F0E0FC824609E0208800EB46002080AC
:100E500004E04FF0030A01E04FF0030A5046BDE8FA
:100E6000F0872DE9FC5F04460D460020009028889D
:100E70000A285DDB60784FEA002AA07840EA0A0A77
:100E80000AF101001FFA80FAE07806022079064391
:100E900060794FEA002BA07940EA0B0B0BF10100BF
:100EA0001FFA80FBE0790702207A0743607A0190FD
:100EB000012E3BDB7D2E39DC012F37DB792F35DC32
:100EC00079000198814231D101233A46594604F113
:100ED0000A0000F09BFB8146B9F1000F1ED1A0462D
:100EE00000202880172008F8010B2888401C288043
:100EF0007006000E08F8010B2888401C288000238B
:100F000032465146404600F081FB8146B9F1000F60
:100F100004D12888022101FB06002880B9F1000FC6
:100F200006D0484600F06EFC009001E003200090DF
:100F30000098BDE8FC9F000070B505460C460648C9
:100F400002880649681CFFF711F903480088401C15
:100F50002080002070BD0000240000202F01002010
:100F60002DE9F04104460E464FF000083088052870
:100F700010D160780702A078074301231A4639464A
:100F8000E01C00F043FB054635B1284600F03AFC72
:100F9000804601E04FF003084046BDE8F0812DE9AE
:100FA000F05F05460E464FF0000B3088052838DD0F
:100FB00068784FEA0029A87840EA0909E87804022D
:100FC0002879044395F805A004F0070038B12046BD
:100FD000E11704EB5171C910491CCFB205E020465E
:100FE000E11704EB5171C1F3C707012C16DBB4F50F
:100FF000F66F13DC574511D1012322464946A81D3F
:1010000000F03EFA8046B8F1000F04D0404600F0F0
:10101000F9FB834607E00520308004E04FF0030B26
:1010200001E04FF0030B5846BDE8F09F2DE9F04773
:1010300004460E464FF0000A3088062826DB60780A
:101040004FEA0028A07840EA0808E07805022079F5
:10105000054394F80590012D15DB782D13DC680607
:10106000000E48450FD101232A464146A01D00F03D
:10107000CDFA074627B1384600F0C4FB824607E0A8
:101080000520308004E04FF0030A01E04FF0030A2E
:101090005046BDE8F08700002DE9F04705460C46B4
:1010A00016461F46DDF820904FF000081CB1012CB9
:1010B00001DBF72C02DD4FF0020835E01C4804701C
:1010C00005BB1C481C4908601C481D4908601D4898
:1010D0001D4908601D481E49086000201D49086020
:1010E0001D481E4908601E481E4908601E481F49C9
:1010F00008604B463A4631460D48007800F0D8F873
:10110000804602E04FF0020800BF00BFB8F1000FB8
:101110000AD100F029FC10B94FF0030804E014488C
:1011200005700120134908704046BDE8F0870000B3
:1011300034000020551400083C0000207114000801
:1011400040000020AD130008380000200113000803
:101150004400002048000020E11900084C00002055
:10116000411B000850000020B91A0008540000205C
:10117000350000203600002038B5002541480078B1
:1011800008B1062038BD684600F0DCFB012877D1A5
:101190009DF8000030B1012805D0022818D003289E
:1011A0006DD16BE06BE0384A38493948394B1B68E0
:1011B000984705465DB9364800783749097888422E
:1011C00002D03348007810B9022000F0D5FB56E079
:1011D0002E480068007831490870012030490870B5
:1011E000002417E02F4810F8340000B914E02D480F
:1011F00010F834002949097888420AD1294800EBBF
:10120000C400214942682148006890472449087079
:1012100002E0641C102CE5DB00BF1D48007858B3C9
:101220001F480078C8B10020174908801B48007883
:1012300040F08001144802880088401C124B18803E
:1012400012480068815416480278184601880088C0
:10125000401C18800D48006842541348007801284B
:1012600000D100BF08480288084801680A48007891
:101270000E4B1B689847054601E001E000BF00BF28
:1012800000207FE736000020E6000020E00000207C
:10129000E40000204400002034000020E50000208D
:1012A000E800002060000020350000203800002009
:1012B0002DE9F04781460E4614461F464FF00008C0
:1012C0003B4608222146304600F06CFB012802D044
:1012D0004FF003080FE0B4F5964F01D9232503E042
:1012E00060000649B1FBF0F5A8B200F071FB0128DF
:1012F00001D04FF003084046BDE8F087A07F1700FB
:101300002DE9F04104460D4616464FF0000800272F
:1013100012480088FF2800DC04E0A72210A118A0D2
:10132000FFF71EFC0D480088042812DB0B480188DB
:101330001D4800F093FA60B91B48007820700748F8
:101340000088C01E30801848401C28604FF00108FB
:1013500000E005273846BDE8F0810000320000209B
:101360004D4F444255535F534C4156455C6D6F643D
:101370006275735C7274755C6D627274752E630055
:101380007573526376427566666572506F73203C62
:10139000204D425F5345525F5044555F53495A4573
:1013A0005F4D4158000000004F0100202DE9F04141
:1013B00005460E4617464FF00008214800780128E0
:1013C00038D1701E1F49086001201F4908801D4840
:1013D000006805700846008838440880084601887F
:1013E0001848006800F03AFA044617490888411C7A
:1013F000154B198015490C54221219460888411CB6
:10140000198012490A540120114908700D490968D0
:10141000087800F0D3FA0B480068401C09490860BE
:1014200009480088401E084908800121002000F07A
:1014300031FA01E04FF005084046BDE8F0810000B8
:10144000290000202C000020300000204F01002047
:101450002800002010B50020044908700021012058
:1014600000F018FA00F058FA10BD00002900002022
:1014700010B50021084600F00DFA00F037FA10BD53
:101480002DE9F05F06460F4691469A464FF0000B55
:101490004D46012F71DB07EB0900A9287FDC781E80
:1014A0001FFA80F8BAF1000F03D0BAF1010F75D11D
:1014B00014E010E0082D01DD082000E02846C2B24B
:1014C0004146394800F09CFB06F8010B083D08F145
:1014D00008001FFA80F8002DECDC5FE010E016F841
:1014E000013B082D01DD082000E02846C2B241463C
:1014F0002D4800F09BFB083D08F108001FFA80F81A
:10150000002DECDC00242848007800F0010010B128
:1015100044F0200401E004F0DF0423480078C0F325
:10152000400010B144F0400401E004F0BF041E4844
:101530000078C0F3800010B144F0100401E004F022
:10154000EF0419480078C0F3C00010B144F008045B
:1015500001E004F0F70414480078C0F3001010B163
:1015600044F0040401E004F0FB040F480078C0F3E9
:10157000401018B144F0020402E010E004F0FD0451
:1015800009480078C0F3801010B144F0010401E074
:1015900004F0FE04204600F05FF900BF01E04FF0C8
:1015A000010B5846BDE8F09FF00000202DE9F04700
:1015B00005460C4616464FF0000937B2012C1DDBDC
:1015C000A019B0F5A97F19DA601E1FFA80F812E0A1
:1015D000082F01DD082000E03846C2B241460A4823
:1015E00000F00EFB05F8010BA7F1080007B208F1A7
:1015F00008001FFA80F8002FEADC01E04FF0010933
:101600004846BDE8F087000005010020FEB504460D
:101610000D4600200026012D7BDBAF18072F78DC5C
:10162000691E13B1012B73D111E00DE03A4F37F869
:1016300011703F1204F8017B374F17F8117004F84E
:10164000017B491C571EBAB2002AEFDC60E0324F22
:10165000D7F800C0CDF800C0BF88ADF8047014E022
:1016600014F801CB4FEA0C27DFF8ACC02CF811704E
:1016700014F8017B3CF811C047EA0C07DFF898C06A
:101680002CF81170491C571EBAB2002AE8DC224F10
:101690003F8840F6330C674505DC1F4F3F8840F21A
:1016A000E47C674501DA012624E01B4F7F880C2F7C
:1016B00003DC194F7F88002F01DC01261AE0164F4A
:1016C000BF881F2F03DC144FBF88002F01DC0126C9
:1016D00010E0114FFF88172F01DD01260AE00E4FA1
:1016E0003F893B2F01DD012604E00B4F7F893B2F13
:1016F00000DD01265EB1084FDDF800C0C7F800C06C
:10170000BDF804C0A7F804C0022001E001E000BF5A
:1017100000E00120FEBD00001400002070B504466A
:101720000D46E1B20548FFF714FA00BF80210348D7
:10173000FFF742F90028F9D0204670BD003801407B
:1017400070B50D46044602E02946FFF7E7FF14F89E
:10175000010B0028F8D170BD08B500244820FEF721
:1017600097FFFEF7B9FD00204FF4165301221146F2
:101770000090FFF791FCFFF779FA14E0FFF7FCFC0B
:10178000601CC4B2142094FBF0F100FB114038B986
:101790000548006808B9012000E0002002490860FF
:1017A0000A20FFF73DFAE9E7800122421FB504460F
:1017B00001210220FEF7E8FDADF8084040F2077075
:1017C000ADF804000020ADF80A00ADF8060001A94C
:1017D0000B48FEF7FFFF1D208DF8000000208DF85C
:1017E000010003208DF8020001208DF803006846F7
:1017F000FEF790FD01210248FEF7C3FF1FBD000068
:1018000000040040014621B1012904D0072906D176
:1018100003E0002005E0022003E0062001E00420B0
:1018200000BF00BF7047000010B502480068804745
:1018300010BD00005400002010B502480068804729
:1018400010BD00004C00002010B502480068804721
:1018500010BD0000500000207047000070B5024627
:101860000C46FF25FF2309E012F8010B80EA030173
:101870000648405C80EA05030548455C201EA4F14B
:101880000106B4B2F0D143EA052070BDCC1C0008BB
:10189000CC1D000870B505460C46012D09D100206D
:1018A00010490860012240F225510F48FFF7BBF8AC
:1018B00005E0002240F225510B48FFF7B4F8012C57
:1018C00009D1012007490860012240F2266106483B
:1018D000FFF7A9F805E0002240F226610248FFF771
:1018E000A2F870BD8C0124420044004010B50121D3
:1018F0000848FEF743FF002201210648FEF75EFF7D
:1019000000210448FEF763FF00210248FEF739FF7B
:1019100010BD00000004004010B501210848FEF78A
:101920002DFF012211460648FEF748FF002104481A
:10193000FEF74DFF01210248FEF723FF10BD000016
:101940000004004001460020054A127832B1054AE1
:1019500012780A700022024B1A70012070470000B2
:10196000EA000020E9000020002002490870012060
:1019700070470000EA00002001460120024A107072
:101980000248017001207047EA000020E9000020B1
:1019900010B504460248FFF7D7F82070012010BDAB
:1019A000004400402DE9F04105460C4616461F460E
:1019B0002046FEF773FD0120BDE8F08110B5044616
:1019C00021460248FFF7C5F8012010BD0044004041
:1019D00010B504462046FFF7E9FE012010BD0000C7
:1019E00038B500242148007800B904E0F92220A18C
:1019F00027A0FFF7B5F86846FFF7CAFF2B48007825
:101A000030B101280AD0022819D003282BD102E0D6
:101A1000FFF782FF27E0FFF77FFF24E00020244943
:101A200008809DF800200888411C214B198021491D
:101A30000A5402201D490870FFF76EFF13E01C488E
:101A40000088FF2809DC9DF8002019490888411CFE
:101A5000174B198017490A5402E0032013490870F4
:101A6000FFF75AFF00BF00BF204638BD2800002006
:101A70004D4F444255535F534C4156455C6D6F6426
:101A80006275735C7274755C6D627274752E63003E
:101A900065536E645374617465203D3D2053544119
:101AA00054455F54585F49444C45000029000020CC
:101AB000320000204F01002010B5002416480078A5
:101AC00020B1022807D003280BD109E00020FFF73E
:101AD00053FF044618E00120FFF74EFF044613E0D1
:101AE00012E00D48007838B10B480078022803D086
:101AF00009480078032800D105E040F27B1207A1D5
:101B00000E48FFF72DF800BF00BFFFF7EFFE0120E2
:101B100001490870204610BD290000204D4F444265
:101B200055535F534C4156455C6D6F646275735CF1
:101B30007274755C6D627274752E6300CC1E000841
:101B400010B500241B480078012800D105E040F2C0
:101B5000391219A120A0FFF703F82648007810B128
:101B6000012824D104E000210120FFF793FE1EE0AC
:101B70002148008878B1214909680878FFF71EFFDD
:101B80001E480068401C1D4908601B480088401E14
:101B9000194908800AE00320FFF7EEFE0446002101
:101BA0000120FFF777FE00201249087000BF00BF38
:101BB000204610BD290000204D4F444255535F532D
:101BC0004C4156455C6D6F646275735C7274755CF4
:101BD0006D627274752E630065526376537461741E
:101BE00065203D3D2053544154455F52585F494460
:101BF0004C45000028000020300000202C00002070
:101C0000F0B503460C461546E208A4EBC20087B2C5
:101C10000120A840401E86B2995C501C185C41EA25
:101C2000002139413140C8B2F0BD00002DE9FF5F0D
:101C300005460E469046DDF80CB0B8F1080F00DC02
:101C400004E0382213A11DA0FEF78AFFF408A6EBDA
:101C5000C4001FFA80FA0BFA0AF01FFA80FB012079
:101C600000FA08F0401E1FFA80F9A6EBC40009FA3A
:101C700000F01FFA80F92F5D601C285C47EA0027FE
:101C800027EA090040EA0B072F553912601C295436
:101C9000BDE8FF9F4D4F444255535F534C4156455D
:101CA0005C6D6F646275735C66756E6374696F6E8C
:101CB000735C6D627574696C732E630075634E425C
:101CC000697473203C3D20380000000000C1814051
:101CD00001C0804101C0804100C1814001C08041FC
:101CE00000C1814000C1814001C0804101C08041EC
:101CF00000C1814000C1814001C0804100C18140DC
:101D000001C0804101C0804100C1814001C08041CB
:101D100000C1814000C1814001C0804100C18140BB
:101D200001C0804101C0804100C1814000C18140AB
:101D300001C0804101C0804100C1814001C080419B
:101D400000C1814000C1814001C0804101C080418B
:101D500000C1814000C1814001C0804100C181407B
:101D600001C0804101C0804100C1814000C181406B
:101D700001C0804101C0804100C1814001C080415B
:101D800000C1814000C1814001C0804100C181404B
:101D900001C0804101C0804100C1814001C080413B
:101DA00000C1814000C1814001C0804101C080412B
:101DB00000C1814000C1814001C0804100C181401B
:101DC00001C0804101C0804100C1814000C0C1010B
:101DD000C30302C2C60607C705C5C404CC0C0DCD9B
:101DE0000FCFCE0E0ACACB0BC90908C8D81819D90B
:101DF0001BDBDA1A1EDEDF1FDD1D1CDC14D4D5153B
:101E0000D71716D6D21213D311D1D010F03031F12A
:101E100033F3F23236F6F737F53534F43CFCFD3D5A
:101E2000FF3F3EFEFA3A3BFB39F9F83828E8E9294A
:101E3000EB2B2AEAEE2E2FEF2DEDEC2CE42425E5FA
:101E400027E7E62622E2E323E12120E0A06061A16A
:101E500063A3A26266A6A767A56564A46CACAD6D1A
:101E6000AF6F6EAEAA6A6BAB69A9A86878B8B9798A
:101E7000BB7B7ABABE7E7FBF7DBDBC7CB47475B5BA
:101E800077B7B67672B2B373B17170B050909151AA
:101E90009353529296565797559594549C5C5D9DDA
:101EA0005F9F9E5E5A9A9B5B9959589888484989CA
:101EB0004B8B8A4A4E8E8F4F8D4D4C8C448485457A
:101EC000874746868242438341818040282065526D
:101ED00063765374617465203D3D205354415445ED
:101EE0005F52585F494E49542029207C7C2028208D
:101EF000655263765374617465203D3D20535441AF
:101F000054455F52585F5243562029207C7C20283C
:101F100020655263765374617465203D3D205354AF
:101F20004154455F52585F4552524F52202900009C
:101F3000501F000800000020F0000000FC0B00080B
:101F400040200008F0000020600500000C0C000894
:101F5000000000000102030401020304060708094F
:101F60000204060801000200030004000500060048
:101F70000000000000000000000000000000000061
:101F8000000000000000020000000000000000004F
:101F90000000000000000000000000000000000041
:101FA0000000000000000000000000000000000031
:101FB00011000000390F000803000000DF0D0008C9
:101FC000100000002D10000806000000610F00083E
:101FD00017000000630E000801000000950C0008C7
:101FE0000F0000009F0F0008020000003B0D0008DA
:101FF00000000000000000000000000000000000E1
:1020000000000000000000000000000000000000D0
:1020100000000000000000000000000000000000C0
:1020200000000000000000000000000000000000B0
:1020300000000000000000000000000000000000A0
:0400000508000131BD
:00000001FF
